{
  "abi": [
    {
      "anonymous": false,
      "inputs": [
        {
          "indexed": true,
          "internalType": "address",
          "name": "_owner",
          "type": "address"
        },
        {
          "indexed": true,
          "internalType": "address",
          "name": "_approved",
          "type": "address"
        },
        {
          "indexed": true,
          "internalType": "uint256",
          "name": "_tokenId",
          "type": "uint256"
        }
      ],
      "name": "Approval",
      "type": "event"
    },
    {
      "anonymous": false,
      "inputs": [
        {
          "indexed": false,
          "internalType": "uint256",
          "name": "zombieId",
          "type": "uint256"
        },
        {
          "indexed": false,
          "internalType": "string",
          "name": "name",
          "type": "string"
        },
        {
          "indexed": false,
          "internalType": "uint256",
          "name": "dna",
          "type": "uint256"
        }
      ],
      "name": "NewZombie",
      "type": "event"
    },
    {
      "anonymous": false,
      "inputs": [
        {
          "indexed": true,
          "internalType": "address",
          "name": "previousOwner",
          "type": "address"
        },
        {
          "indexed": true,
          "internalType": "address",
          "name": "newOwner",
          "type": "address"
        }
      ],
      "name": "OwnershipTransferred",
      "type": "event"
    },
    {
      "anonymous": false,
      "inputs": [
        {
          "indexed": true,
          "internalType": "address",
          "name": "_from",
          "type": "address"
        },
        {
          "indexed": true,
          "internalType": "address",
          "name": "_to",
          "type": "address"
        },
        {
          "indexed": true,
          "internalType": "uint256",
          "name": "_tokenId",
          "type": "uint256"
        }
      ],
      "name": "Transfer",
      "type": "event"
    },
    {
      "inputs": [
        {
          "internalType": "address",
          "name": "_approved",
          "type": "address"
        },
        {
          "internalType": "uint256",
          "name": "_tokenId",
          "type": "uint256"
        }
      ],
      "name": "approve",
      "outputs": [],
      "stateMutability": "payable",
      "type": "function"
    },
    {
      "inputs": [
        {
          "internalType": "uint256",
          "name": "_zombieId",
          "type": "uint256"
        },
        {
          "internalType": "uint256",
          "name": "_targetId",
          "type": "uint256"
        }
      ],
      "name": "attack",
      "outputs": [],
      "stateMutability": "nonpayable",
      "type": "function"
    },
    {
      "inputs": [
        {
          "internalType": "address",
          "name": "_owner",
          "type": "address"
        }
      ],
      "name": "balanceOf",
      "outputs": [
        {
          "internalType": "uint256",
          "name": "",
          "type": "uint256"
        }
      ],
      "stateMutability": "view",
      "type": "function"
    },
    {
      "inputs": [
        {
          "internalType": "uint256",
          "name": "_zombieId",
          "type": "uint256"
        },
        {
          "internalType": "uint256",
          "name": "_newDna",
          "type": "uint256"
        }
      ],
      "name": "changeDna",
      "outputs": [],
      "stateMutability": "nonpayable",
      "type": "function"
    },
    {
      "inputs": [
        {
          "internalType": "uint256",
          "name": "_zombieId",
          "type": "uint256"
        },
        {
          "internalType": "string",
          "name": "_newName",
          "type": "string"
        }
      ],
      "name": "changeName",
      "outputs": [],
      "stateMutability": "nonpayable",
      "type": "function"
    },
    {
      "inputs": [
        {
          "internalType": "string",
          "name": "_name",
          "type": "string"
        }
      ],
      "name": "createRandomZombie",
      "outputs": [],
      "stateMutability": "nonpayable",
      "type": "function"
    },
    {
      "inputs": [
        {
          "internalType": "uint256",
          "name": "_zombieId",
          "type": "uint256"
        },
        {
          "internalType": "uint256",
          "name": "_kittyId",
          "type": "uint256"
        }
      ],
      "name": "feedOnKitty",
      "outputs": [],
      "stateMutability": "nonpayable",
      "type": "function"
    },
    {
      "inputs": [
        {
          "internalType": "address",
          "name": "_owner",
          "type": "address"
        }
      ],
      "name": "getZombiesByOwner",
      "outputs": [
        {
          "internalType": "uint256[]",
          "name": "",
          "type": "uint256[]"
        }
      ],
      "stateMutability": "view",
      "type": "function"
    },
    {
      "inputs": [],
      "name": "isOwner",
      "outputs": [
        {
          "internalType": "bool",
          "name": "",
          "type": "bool"
        }
      ],
      "stateMutability": "view",
      "type": "function"
    },
    {
      "inputs": [
        {
          "internalType": "uint256",
          "name": "_zombieId",
          "type": "uint256"
        }
      ],
      "name": "levelUp",
      "outputs": [],
      "stateMutability": "payable",
      "type": "function"
    },
    {
      "inputs": [],
      "name": "owner",
      "outputs": [
        {
          "internalType": "address",
          "name": "",
          "type": "address"
        }
      ],
      "stateMutability": "view",
      "type": "function"
    },
    {
      "inputs": [
        {
          "internalType": "uint256",
          "name": "_tokenId",
          "type": "uint256"
        }
      ],
      "name": "ownerOf",
      "outputs": [
        {
          "internalType": "address",
          "name": "",
          "type": "address"
        }
      ],
      "stateMutability": "view",
      "type": "function"
    },
    {
      "inputs": [
        {
          "internalType": "address",
          "name": "",
          "type": "address"
        }
      ],
      "name": "ownerZombieCount",
      "outputs": [
        {
          "internalType": "uint256",
          "name": "",
          "type": "uint256"
        }
      ],
      "stateMutability": "view",
      "type": "function"
    },
    {
      "inputs": [],
      "name": "renounceOwnership",
      "outputs": [],
      "stateMutability": "nonpayable",
      "type": "function"
    },
    {
      "inputs": [
        {
          "internalType": "address",
          "name": "_address",
          "type": "address"
        }
      ],
      "name": "setKittyContractAddress",
      "outputs": [],
      "stateMutability": "nonpayable",
      "type": "function"
    },
    {
      "inputs": [
        {
          "internalType": "uint256",
          "name": "_fee",
          "type": "uint256"
        }
      ],
      "name": "setLevelUpFee",
      "outputs": [],
      "stateMutability": "nonpayable",
      "type": "function"
    },
    {
      "inputs": [
        {
          "internalType": "address",
          "name": "_from",
          "type": "address"
        },
        {
          "internalType": "address",
          "name": "_to",
          "type": "address"
        },
        {
          "internalType": "uint256",
          "name": "_tokenId",
          "type": "uint256"
        }
      ],
      "name": "transferFrom",
      "outputs": [],
      "stateMutability": "payable",
      "type": "function"
    },
    {
      "inputs": [
        {
          "internalType": "address",
          "name": "newOwner",
          "type": "address"
        }
      ],
      "name": "transferOwnership",
      "outputs": [],
      "stateMutability": "nonpayable",
      "type": "function"
    },
    {
      "inputs": [],
      "name": "withdraw",
      "outputs": [],
      "stateMutability": "nonpayable",
      "type": "function"
    },
    {
      "inputs": [
        {
          "internalType": "uint256",
          "name": "",
          "type": "uint256"
        }
      ],
      "name": "zombieToOwner",
      "outputs": [
        {
          "internalType": "address",
          "name": "",
          "type": "address"
        }
      ],
      "stateMutability": "view",
      "type": "function"
    },
    {
      "inputs": [
        {
          "internalType": "uint256",
          "name": "",
          "type": "uint256"
        }
      ],
      "name": "zombies",
      "outputs": [
        {
          "internalType": "string",
          "name": "name",
          "type": "string"
        },
        {
          "internalType": "uint256",
          "name": "dna",
          "type": "uint256"
        },
        {
          "internalType": "uint32",
          "name": "level",
          "type": "uint32"
        },
        {
          "internalType": "uint32",
          "name": "readyTime",
          "type": "uint32"
        },
        {
          "internalType": "uint16",
          "name": "winCount",
          "type": "uint16"
        },
        {
          "internalType": "uint16",
          "name": "lossCount",
          "type": "uint16"
        }
      ],
      "stateMutability": "view",
      "type": "function"
    }
  ],
  "bytecode": {
    "object": "0x6080604052601060018190556200001890600a6200019f565b6002556201518060035566038d7ea4c6800060085560006009556046600a553480156200004457600080fd5b50600080546001600160a01b0319163390811782556040519091907f8be0079c531659141344cd1fd0a4f28419497f9722a3daafe3b4186f6b6457e0908290a3620001b4565b634e487b7160e01b600052601160045260246000fd5b600181815b80851115620000e1578160001904821115620000c557620000c56200008a565b80851615620000d357918102915b93841c9390800290620000a5565b509250929050565b600082620000fa5750600162000199565b81620001095750600062000199565b81600181146200012257600281146200012d576200014d565b600191505062000199565b60ff8411156200014157620001416200008a565b50506001821b62000199565b5060208310610133831016604e8410600b841016171562000172575081810a62000199565b6200017e8383620000a0565b80600019048211156200019557620001956200008a565b0290505b92915050565b6000620001ad8383620000e9565b9392505050565b61186180620001c46000396000f3fe60806040526004361061012a5760003560e01c80635faf2880116100ab5780638da5cb5b1161006f5780638da5cb5b1461036d5780638f32d59b1461038b578063c39cbef1146103b6578063ccf670f8146103d6578063e1fa7638146103f6578063f2fde38b1461041657600080fd5b80635faf2880146102ac5780636352211e146102cc57806370a0823114610302578063715018a6146103385780637bff0a011461034d57600080fd5b806323b872dd116100f257806323b872dd146101e95780633ccfd60b146101fc5780634412e10414610211578063528b7b8f1461023e5780635f4623f11461028c57600080fd5b806301afd7e11461012f578063095ea7b31461016f5780630ce90ec21461018457806317a7f4cc146101975780632052465e146101b7575b600080fd5b34801561013b57600080fd5b5061015c61014a36600461117b565b60066020526000908152604090205481565b6040519081526020015b60405180910390f35b61018261017d366004611196565b610436565b005b6101826101923660046111c0565b6104b5565b3480156101a357600080fd5b506101826101b23660046111d9565b61051c565b3480156101c357600080fd5b506101d76101d23660046111c0565b6105c7565b6040516101669695949392919061124b565b6101826101f7366004611296565b6106b1565b34801561020857600080fd5b50610182610700565b34801561021d57600080fd5b5061023161022c36600461117b565b610760565b60405161016691906112d2565b34801561024a57600080fd5b506102746102593660046111c0565b6005602052600090815260409020546001600160a01b031681565b6040516001600160a01b039091168152602001610166565b34801561029857600080fd5b506101826102a736600461117b565b610837565b3480156102b857600080fd5b506101826102c73660046111d9565b610870565b3480156102d857600080fd5b506102746102e73660046111c0565b6000908152600560205260409020546001600160a01b031690565b34801561030e57600080fd5b5061015c61031d36600461117b565b6001600160a01b031660009081526006602052604090205490565b34801561034457600080fd5b50610182610901565b34801561035957600080fd5b5061018261036836600461132c565b610962565b34801561037957600080fd5b506000546001600160a01b0316610274565b34801561039757600080fd5b506000546001600160a01b031633146040519015158152602001610166565b3480156103c257600080fd5b506101826103d13660046113dd565b6109c8565b3480156103e257600080fd5b506101826103f13660046111c0565b610a65565b34801561040257600080fd5b506101826104113660046111d9565b610a81565b34801561042257600080fd5b5061018261043136600461117b565b610c6b565b60008181526005602052604090205481906001600160a01b0316331461045b57600080fd5b6000828152600b602052604080822080546001600160a01b0319166001600160a01b0387169081179091559051849233917f8c5be1e5ebec7d5bd14f71427d1e84f3dd0314c0f7b2291e5b200ac8c7c3b9259190a4505050565b60085434146104c357600080fd5b600481815481106104d6576104d6611459565b600091825260208220600260039092020101805463ffffffff16916104fa83611485565b91906101000a81548163ffffffff021916908363ffffffff1602179055505050565b60075460405163e98b7f4d60e01b8152600481018390526000916001600160a01b03169063e98b7f4d9060240161014060405180830381865afa158015610567573d6000803e3d6000fd5b505050506040513d601f19601f8201168201806040525081019061058b91906114b8565b6040805180820190915260058152646b6974747960d81b6020820152909a506105c299508c98508a97509550610c8e945050505050565b505050565b600481815481106105d757600080fd5b90600052602060002090600302016000915090508060000180546105fa9061153a565b80601f01602080910402602001604051908101604052809291908181526020018280546106269061153a565b80156106735780601f1061064857610100808354040283529160200191610673565b820191906000526020600020905b81548152906001019060200180831161065657829003601f168201915b505050600184015460029094015492939263ffffffff8082169350640100000000820416915061ffff600160401b8204811691600160501b90041686565b6000818152600560205260409020546001600160a01b03163314806106ec57506000818152600b60205260409020546001600160a01b031633145b6106f557600080fd5b6105c2838383610ddb565b6000546001600160a01b0316331461071757600080fd5b600080546001600160a01b03166040519091506001600160a01b038216904780156108fc02916000818181858888f1935050505015801561075c573d6000803e3d6000fd5b5050565b6001600160a01b0381166000908152600660205260408120546060919067ffffffffffffffff81111561079557610795611316565b6040519080825280602002602001820160405280156107be578160200160208202803683370190505b5090506000805b60045481101561082e576000818152600560205260409020546001600160a01b0380871691160361081c578083838151811061080357610803611459565b60209081029190910101528161081881611574565b9250505b8061082681611574565b9150506107c5565b50909392505050565b6000546001600160a01b0316331461084e57600080fd5b600780546001600160a01b0319166001600160a01b0392909216919091179055565b601482816004828154811061088757610887611459565b600091825260209091206002600390920201015463ffffffff1610156108ac57600080fd5b60008481526005602052604090205484906001600160a01b031633146108d157600080fd5b83600486815481106108e5576108e5611459565b9060005260206000209060030201600101819055505050505050565b6000546001600160a01b0316331461091857600080fd5b600080546040516001600160a01b03909116907f8be0079c531659141344cd1fd0a4f28419497f9722a3daafe3b4186f6b6457e0908390a3600080546001600160a01b0319169055565b33600090815260066020526040902054156109b15760405162461bcd60e51b815260206004820152600b60248201526a073686f756c6420626520360ac1b604482015260640160405180910390fd5b60006109bc82610e89565b905061075c8282610ecd565b60028381600482815481106109df576109df611459565b600091825260209091206002600390920201015463ffffffff161015610a0457600080fd5b60008581526005602052604090205485906001600160a01b03163314610a2957600080fd5b848460048881548110610a3e57610a3e611459565b90600052602060002090600302016000019182610a5c9291906115d3565b50505050505050565b6000546001600160a01b03163314610a7c57600080fd5b600855565b60008281526005602052604090205482906001600160a01b03163314610aa657600080fd5b600060048481548110610abb57610abb611459565b90600052602060002090600302019050600060048481548110610ae057610ae0611459565b906000526020600020906003020190506000610afc606461104c565b9050600a548111610be557600283018054600160401b900461ffff16906008610b2483611694565b825461ffff9182166101009390930a92830291909202199091161790555060028301805463ffffffff16906000610b5a83611485565b825463ffffffff9182166101009390930a92830291909202199091161790555060028201805461ffff600160501b9091041690600a610b9883611694565b91906101000a81548161ffff021916908361ffff16021790555050610be0868360010154604051806040016040528060068152602001657a6f6d62696560d01b815250610c8e565b610c63565b600283018054600160501b900461ffff1690600a610c0283611694565b91906101000a81548161ffff021916908361ffff1602179055505081600201600881819054906101000a900461ffff1680929190610c3f90611694565b91906101000a81548161ffff021916908361ffff16021790555050610c63836110bf565b505050505050565b6000546001600160a01b03163314610c8257600080fd5b610c8b816110f1565b50565b60008381526005602052604090205483906001600160a01b03163314610cb357600080fd5b600060048581548110610cc857610cc8611459565b90600052602060002090600302019050610cf881600201544263ffffffff64010000000090920491909116111590565b610d0157600080fd5b600254610d0e90856116c1565b935060006002858360010154610d2491906116d5565b610d2e91906116e8565b604051646b6974747960d81b60208201529091506025016040516020818303038152906040528051906020012084604051602001610d6c91906116fc565b6040516020818303038152906040528051906020012003610daa57610d926064826116c1565b610d9c9082611718565b610da79060636116d5565b90505b610dd2604051806040016040528060068152602001654e6f4e616d6560d01b81525082610ecd565b610c63826110bf565b6001600160a01b0382166000908152600660205260408120805491610dff83611574565b90915550506001600160a01b0383166000908152600660205260408120805491610e288361172b565b909155505060008181526005602052604080822080546001600160a01b0319166001600160a01b0386811691821790925591518493918716917fddf252ad1be2c89b69c2b068fc378daa952ba7f163c4a11628f55a4df523b3ef91a4505050565b60008082604051602001610e9d91906116fc565b6040516020818303038152906040528051906020012060001c905060025481610ec691906116c1565b9392505050565b6000600480549050905060046040518060c00160405280858152602001848152602001600163ffffffff16815260200160035442610f0b91906116d5565b63ffffffff1681526000602080830182905260409092018190528354600181018555938152208151919260030201908190610f469082611742565b506020828101516001830155604080840151600290930180546060860151608087015160a09097015161ffff908116600160501b0261ffff60501b1991909816600160401b02166bffffffff00000000000000001963ffffffff9283166401000000000267ffffffffffffffff1990941692909716919091179190911794909416939093179390931790915560008381526005825282812080546001600160a01b031916339081179091558152600690915290812080549161100783611574565b91905055507f88f026aacbbecc90c18411df4b1185fd8d9be2470f1962f192bf84a27d0704b781848460405161103f93929190611802565b60405180910390a1505050565b600980546000918261105d83611574565b9091555050600954604080514260208201526bffffffffffffffffffffffff193360601b1691810191909152605481019190915282906074016040516020818303038152906040528051906020012060001c6110b991906116c1565b92915050565b6003546110cc90426116d5565b8160020160046101000a81548163ffffffff021916908363ffffffff16021790555050565b6001600160a01b03811661110457600080fd5b600080546040516001600160a01b03808516939216917f8be0079c531659141344cd1fd0a4f28419497f9722a3daafe3b4186f6b6457e091a3600080546001600160a01b0319166001600160a01b0392909216919091179055565b80356001600160a01b038116811461117657600080fd5b919050565b60006020828403121561118d57600080fd5b610ec68261115f565b600080604083850312156111a957600080fd5b6111b28361115f565b946020939093013593505050565b6000602082840312156111d257600080fd5b5035919050565b600080604083850312156111ec57600080fd5b50508035926020909101359150565b60005b838110156112165781810151838201526020016111fe565b50506000910152565b600081518084526112378160208601602086016111fb565b601f01601f19169290920160200192915050565b60c08152600061125e60c083018961121f565b60208301979097525063ffffffff948516604082015292909316606083015261ffff908116608083015290911660a090910152919050565b6000806000606084860312156112ab57600080fd5b6112b48461115f565b92506112c26020850161115f565b9150604084013590509250925092565b6020808252825182820181905260009190848201906040850190845b8181101561130a578351835292840192918401916001016112ee565b50909695505050505050565b634e487b7160e01b600052604160045260246000fd5b60006020828403121561133e57600080fd5b813567ffffffffffffffff8082111561135657600080fd5b818401915084601f83011261136a57600080fd5b81358181111561137c5761137c611316565b604051601f8201601f19908116603f011681019083821181831017156113a4576113a4611316565b816040528281528760208487010111156113bd57600080fd5b826020860160208301376000928101602001929092525095945050505050565b6000806000604084860312156113f257600080fd5b83359250602084013567ffffffffffffffff8082111561141157600080fd5b818601915086601f83011261142557600080fd5b81358181111561143457600080fd5b87602082850101111561144657600080fd5b6020830194508093505050509250925092565b634e487b7160e01b600052603260045260246000fd5b634e487b7160e01b600052601160045260246000fd5b600063ffffffff80831681810361149e5761149e61146f565b6001019392505050565b8051801515811461117657600080fd5b6000806000806000806000806000806101408b8d0312156114d857600080fd5b6114e18b6114a8565b99506114ef60208c016114a8565b985060408b0151975060608b0151965060808b0151955060a08b0151945060c08b0151935060e08b015192506101008b015191506101208b015190509295989b9194979a5092959850565b600181811c9082168061154e57607f821691505b60208210810361156e57634e487b7160e01b600052602260045260246000fd5b50919050565b6000600182016115865761158661146f565b5060010190565b601f8211156105c257600081815260208120601f850160051c810160208610156115b45750805b601f850160051c820191505b81811015610c63578281556001016115c0565b67ffffffffffffffff8311156115eb576115eb611316565b6115ff836115f9835461153a565b8361158d565b6000601f841160018114611633576000851561161b5750838201355b600019600387901b1c1916600186901b17835561168d565b600083815260209020601f19861690835b828110156116645786850135825560209485019460019092019101611644565b50868210156116815760001960f88860031b161c19848701351681555b505060018560011b0183555b5050505050565b600061ffff80831681810361149e5761149e61146f565b634e487b7160e01b600052601260045260246000fd5b6000826116d0576116d06116ab565b500690565b808201808211156110b9576110b961146f565b6000826116f7576116f76116ab565b500490565b6000825161170e8184602087016111fb565b9190910192915050565b818103818111156110b9576110b961146f565b60008161173a5761173a61146f565b506000190190565b815167ffffffffffffffff81111561175c5761175c611316565b6117708161176a845461153a565b8461158d565b602080601f8311600181146117a5576000841561178d5750858301515b600019600386901b1c1916600185901b178555610c63565b600085815260208120601f198616915b828110156117d4578886015182559484019460019091019084016117b5565b50858210156117f25787850151600019600388901b60f8161c191681555b5050505050600190811b01905550565b83815260606020820152600061181b606083018561121f565b905082604083015294935050505056fea26469706673582212208205d74dbfae2f62dd8ea54208a5b36cd7c5906d4350c890e742b025d32341ec64736f6c63430008150033",
    "linkReferences": {}
  },
  "methodIdentifiers": {
    "approve(address,uint256)": "095ea7b3",
    "attack(uint256,uint256)": "e1fa7638",
    "balanceOf(address)": "70a08231",
    "changeDna(uint256,uint256)": "5faf2880",
    "changeName(uint256,string)": "c39cbef1",
    "createRandomZombie(string)": "7bff0a01",
    "feedOnKitty(uint256,uint256)": "17a7f4cc",
    "getZombiesByOwner(address)": "4412e104",
    "isOwner()": "8f32d59b",
    "levelUp(uint256)": "0ce90ec2",
    "owner()": "8da5cb5b",
    "ownerOf(uint256)": "6352211e",
    "ownerZombieCount(address)": "01afd7e1",
    "renounceOwnership()": "715018a6",
    "setKittyContractAddress(address)": "5f4623f1",
    "setLevelUpFee(uint256)": "ccf670f8",
    "transferFrom(address,address,uint256)": "23b872dd",
    "transferOwnership(address)": "f2fde38b",
    "withdraw()": "3ccfd60b",
    "zombieToOwner(uint256)": "528b7b8f",
    "zombies(uint256)": "2052465e"
  },
  "id": 24
}