{
  "abi": [
    {
      "anonymous": false,
      "inputs": [
        {
          "indexed": false,
          "internalType": "uint256",
          "name": "zombieId",
          "type": "uint256"
        },
        {
          "indexed": false,
          "internalType": "string",
          "name": "name",
          "type": "string"
        },
        {
          "indexed": false,
          "internalType": "uint256",
          "name": "dna",
          "type": "uint256"
        }
      ],
      "name": "NewZombie",
      "type": "event"
    },
    {
      "anonymous": false,
      "inputs": [
        {
          "indexed": true,
          "internalType": "address",
          "name": "previousOwner",
          "type": "address"
        },
        {
          "indexed": true,
          "internalType": "address",
          "name": "newOwner",
          "type": "address"
        }
      ],
      "name": "OwnershipTransferred",
      "type": "event"
    },
    {
      "inputs": [
        {
          "internalType": "uint256",
          "name": "_zombieId",
          "type": "uint256"
        },
        {
          "internalType": "uint256",
          "name": "_newDna",
          "type": "uint256"
        }
      ],
      "name": "changeDna",
      "outputs": [],
      "stateMutability": "nonpayable",
      "type": "function"
    },
    {
      "inputs": [
        {
          "internalType": "uint256",
          "name": "_zombieId",
          "type": "uint256"
        },
        {
          "internalType": "string",
          "name": "_newName",
          "type": "string"
        }
      ],
      "name": "changeName",
      "outputs": [],
      "stateMutability": "nonpayable",
      "type": "function"
    },
    {
      "inputs": [
        {
          "internalType": "string",
          "name": "_name",
          "type": "string"
        }
      ],
      "name": "createRandomZombie",
      "outputs": [],
      "stateMutability": "nonpayable",
      "type": "function"
    },
    {
      "inputs": [
        {
          "internalType": "uint256",
          "name": "_zombieId",
          "type": "uint256"
        },
        {
          "internalType": "uint256",
          "name": "_kittyId",
          "type": "uint256"
        }
      ],
      "name": "feedOnKitty",
      "outputs": [],
      "stateMutability": "nonpayable",
      "type": "function"
    },
    {
      "inputs": [
        {
          "internalType": "address",
          "name": "_owner",
          "type": "address"
        }
      ],
      "name": "getZombiesByOwner",
      "outputs": [
        {
          "internalType": "uint256[]",
          "name": "",
          "type": "uint256[]"
        }
      ],
      "stateMutability": "view",
      "type": "function"
    },
    {
      "inputs": [],
      "name": "isOwner",
      "outputs": [
        {
          "internalType": "bool",
          "name": "",
          "type": "bool"
        }
      ],
      "stateMutability": "view",
      "type": "function"
    },
    {
      "inputs": [
        {
          "internalType": "uint256",
          "name": "_zombieId",
          "type": "uint256"
        }
      ],
      "name": "levelUp",
      "outputs": [],
      "stateMutability": "payable",
      "type": "function"
    },
    {
      "inputs": [],
      "name": "owner",
      "outputs": [
        {
          "internalType": "address",
          "name": "",
          "type": "address"
        }
      ],
      "stateMutability": "view",
      "type": "function"
    },
    {
      "inputs": [
        {
          "internalType": "address",
          "name": "",
          "type": "address"
        }
      ],
      "name": "ownerZombieCount",
      "outputs": [
        {
          "internalType": "uint256",
          "name": "",
          "type": "uint256"
        }
      ],
      "stateMutability": "view",
      "type": "function"
    },
    {
      "inputs": [],
      "name": "renounceOwnership",
      "outputs": [],
      "stateMutability": "nonpayable",
      "type": "function"
    },
    {
      "inputs": [
        {
          "internalType": "address",
          "name": "_address",
          "type": "address"
        }
      ],
      "name": "setKittyContractAddress",
      "outputs": [],
      "stateMutability": "nonpayable",
      "type": "function"
    },
    {
      "inputs": [
        {
          "internalType": "uint256",
          "name": "_fee",
          "type": "uint256"
        }
      ],
      "name": "setLevelUpFee",
      "outputs": [],
      "stateMutability": "nonpayable",
      "type": "function"
    },
    {
      "inputs": [
        {
          "internalType": "address",
          "name": "newOwner",
          "type": "address"
        }
      ],
      "name": "transferOwnership",
      "outputs": [],
      "stateMutability": "nonpayable",
      "type": "function"
    },
    {
      "inputs": [],
      "name": "withdraw",
      "outputs": [],
      "stateMutability": "nonpayable",
      "type": "function"
    },
    {
      "inputs": [
        {
          "internalType": "uint256",
          "name": "",
          "type": "uint256"
        }
      ],
      "name": "zombieToOwner",
      "outputs": [
        {
          "internalType": "address",
          "name": "",
          "type": "address"
        }
      ],
      "stateMutability": "view",
      "type": "function"
    },
    {
      "inputs": [
        {
          "internalType": "uint256",
          "name": "",
          "type": "uint256"
        }
      ],
      "name": "zombies",
      "outputs": [
        {
          "internalType": "string",
          "name": "name",
          "type": "string"
        },
        {
          "internalType": "uint256",
          "name": "dna",
          "type": "uint256"
        },
        {
          "internalType": "uint32",
          "name": "level",
          "type": "uint32"
        },
        {
          "internalType": "uint32",
          "name": "readyTime",
          "type": "uint32"
        },
        {
          "internalType": "uint16",
          "name": "winCount",
          "type": "uint16"
        },
        {
          "internalType": "uint16",
          "name": "lossCount",
          "type": "uint16"
        }
      ],
      "stateMutability": "view",
      "type": "function"
    }
  ],
  "bytecode": {
    "object": "0x6080604052601060018190556200001890600a62000195565b6002556201518060035566038d7ea4c680006008553480156200003a57600080fd5b50600080546001600160a01b0319163390811782556040519091907f8be0079c531659141344cd1fd0a4f28419497f9722a3daafe3b4186f6b6457e0908290a3620001aa565b634e487b7160e01b600052601160045260246000fd5b600181815b80851115620000d7578160001904821115620000bb57620000bb62000080565b80851615620000c957918102915b93841c93908002906200009b565b509250929050565b600082620000f0575060016200018f565b81620000ff575060006200018f565b8160018114620001185760028114620001235762000143565b60019150506200018f565b60ff84111562000137576200013762000080565b50506001821b6200018f565b5060208310610133831016604e8410600b841016171562000168575081810a6200018f565b62000174838362000096565b80600019048211156200018b576200018b62000080565b0290505b92915050565b6000620001a38383620000df565b9392505050565b61131080620001ba6000396000f3fe6080604052600436106100f35760003560e01c80635faf28801161008a5780638f32d59b116100595780638f32d59b146102c2578063c39cbef1146102ed578063ccf670f81461030d578063f2fde38b1461032d57600080fd5b80635faf28801461024f578063715018a61461026f5780637bff0a01146102845780638da5cb5b146102a457600080fd5b80633ccfd60b116100c65780633ccfd60b1461019f5780634412e104146101b4578063528b7b8f146101e15780635f4623f11461022f57600080fd5b806301afd7e1146100f85780630ce90ec21461013857806317a7f4cc1461014d5780632052465e1461016d575b600080fd5b34801561010457600080fd5b50610125610113366004610ca5565b60066020526000908152604090205481565b6040519081526020015b60405180910390f35b61014b610146366004610cce565b61034d565b005b34801561015957600080fd5b5061014b610168366004610ce7565b6103b4565b34801561017957600080fd5b5061018d610188366004610cce565b61045f565b60405161012f96959493929190610d59565b3480156101ab57600080fd5b5061014b610549565b3480156101c057600080fd5b506101d46101cf366004610ca5565b6105a9565b60405161012f9190610da4565b3480156101ed57600080fd5b506102176101fc366004610cce565b6005602052600090815260409020546001600160a01b031681565b6040516001600160a01b03909116815260200161012f565b34801561023b57600080fd5b5061014b61024a366004610ca5565b610680565b34801561025b57600080fd5b5061014b61026a366004610ce7565b6106b9565b34801561027b57600080fd5b5061014b61074a565b34801561029057600080fd5b5061014b61029f366004610dfe565b6107ab565b3480156102b057600080fd5b506000546001600160a01b0316610217565b3480156102ce57600080fd5b506000546001600160a01b03163314604051901515815260200161012f565b3480156102f957600080fd5b5061014b610308366004610eaf565b610811565b34801561031957600080fd5b5061014b610328366004610cce565b6108ae565b34801561033957600080fd5b5061014b610348366004610ca5565b6108ca565b600854341461035b57600080fd5b6004818154811061036e5761036e610f2b565b600091825260208220600260039092020101805463ffffffff169161039283610f57565b91906101000a81548163ffffffff021916908363ffffffff1602179055505050565b60075460405163e98b7f4d60e01b8152600481018390526000916001600160a01b03169063e98b7f4d9060240161014060405180830381865afa1580156103ff573d6000803e3d6000fd5b505050506040513d601f19601f820116820180604052508101906104239190610f8f565b6040805180820190915260058152646b6974747960d81b6020820152909a5061045a99508c98508a975095506108ed945050505050565b505050565b6004818154811061046f57600080fd5b906000526020600020906003020160009150905080600001805461049290611011565b80601f01602080910402602001604051908101604052809291908181526020018280546104be90611011565b801561050b5780601f106104e05761010080835404028352916020019161050b565b820191906000526020600020905b8154815290600101906020018083116104ee57829003601f168201915b505050600184015460029094015492939263ffffffff8082169350640100000000820416915061ffff600160401b8204811691600160501b90041686565b6000546001600160a01b0316331461056057600080fd5b600080546001600160a01b03166040519091506001600160a01b038216904780156108fc02916000818181858888f193505050501580156105a5573d6000803e3d6000fd5b5050565b6001600160a01b0381166000908152600660205260408120546060919067ffffffffffffffff8111156105de576105de610de8565b604051908082528060200260200182016040528015610607578160200160208202803683370190505b5090506000805b600454811015610677576000818152600560205260409020546001600160a01b03808716911603610665578083838151811061064c5761064c610f2b565b6020908102919091010152816106618161104b565b9250505b8061066f8161104b565b91505061060e565b50909392505050565b6000546001600160a01b0316331461069757600080fd5b600780546001600160a01b0319166001600160a01b0392909216919091179055565b60148281600482815481106106d0576106d0610f2b565b600091825260209091206002600390920201015463ffffffff1610156106f557600080fd5b60008481526005602052604090205484906001600160a01b0316331461071a57600080fd5b836004868154811061072e5761072e610f2b565b9060005260206000209060030201600101819055505050505050565b6000546001600160a01b0316331461076157600080fd5b600080546040516001600160a01b03909116907f8be0079c531659141344cd1fd0a4f28419497f9722a3daafe3b4186f6b6457e0908390a3600080546001600160a01b0319169055565b33600090815260066020526040902054156107fa5760405162461bcd60e51b815260206004820152600b60248201526a073686f756c6420626520360ac1b604482015260640160405180910390fd5b600061080582610a42565b90506105a58282610a86565b600283816004828154811061082857610828610f2b565b600091825260209091206002600390920201015463ffffffff16101561084d57600080fd5b60008581526005602052604090205485906001600160a01b0316331461087257600080fd5b84846004888154811061088757610887610f2b565b906000526020600020906003020160000191826108a59291906110aa565b50505050505050565b6000546001600160a01b031633146108c557600080fd5b600855565b6000546001600160a01b031633146108e157600080fd5b6108ea81610c05565b50565b60008381526005602052604090205483906001600160a01b0316331461091257600080fd5b60006004858154811061092757610927610f2b565b9060005260206000209060030201905061095781600201544263ffffffff64010000000090920491909116111590565b61096057600080fd5b60025461096d9085611181565b9350600060028583600101546109839190611195565b61098d91906111ae565b604051646b6974747960d81b602082015290915060250160405160208183030381529060405280519060200120846040516020016109cb91906111c2565b6040516020818303038152906040528051906020012003610a09576109f1606482611181565b6109fb90826111de565b610a06906063611195565b90505b610a31604051806040016040528060068152602001654e6f4e616d6560d01b81525082610a86565b610a3a82610c73565b505050505050565b60008082604051602001610a5691906111c2565b6040516020818303038152906040528051906020012060001c905060025481610a7f9190611181565b9392505050565b6000600480549050905060046040518060c00160405280858152602001848152602001600163ffffffff16815260200160035442610ac49190611195565b63ffffffff1681526000602080830182905260409092018190528354600181018555938152208151919260030201908190610aff90826111f1565b506020828101516001830155604080840151600290930180546060860151608087015160a09097015161ffff908116600160501b0261ffff60501b1991909816600160401b02166bffffffff00000000000000001963ffffffff9283166401000000000267ffffffffffffffff1990941692909716919091179190911794909416939093179390931790915560008381526005825282812080546001600160a01b0319163390811790915581526006909152908120805491610bc08361104b565b91905055507f88f026aacbbecc90c18411df4b1185fd8d9be2470f1962f192bf84a27d0704b7818484604051610bf8939291906112b1565b60405180910390a1505050565b6001600160a01b038116610c1857600080fd5b600080546040516001600160a01b03808516939216917f8be0079c531659141344cd1fd0a4f28419497f9722a3daafe3b4186f6b6457e091a3600080546001600160a01b0319166001600160a01b0392909216919091179055565b600354610c809042611195565b8160020160046101000a81548163ffffffff021916908363ffffffff16021790555050565b600060208284031215610cb757600080fd5b81356001600160a01b0381168114610a7f57600080fd5b600060208284031215610ce057600080fd5b5035919050565b60008060408385031215610cfa57600080fd5b50508035926020909101359150565b60005b83811015610d24578181015183820152602001610d0c565b50506000910152565b60008151808452610d45816020860160208601610d09565b601f01601f19169290920160200192915050565b60c081526000610d6c60c0830189610d2d565b60208301979097525063ffffffff948516604082015292909316606083015261ffff908116608083015290911660a090910152919050565b6020808252825182820181905260009190848201906040850190845b81811015610ddc57835183529284019291840191600101610dc0565b50909695505050505050565b634e487b7160e01b600052604160045260246000fd5b600060208284031215610e1057600080fd5b813567ffffffffffffffff80821115610e2857600080fd5b818401915084601f830112610e3c57600080fd5b813581811115610e4e57610e4e610de8565b604051601f8201601f19908116603f01168101908382118183101715610e7657610e76610de8565b81604052828152876020848701011115610e8f57600080fd5b826020860160208301376000928101602001929092525095945050505050565b600080600060408486031215610ec457600080fd5b83359250602084013567ffffffffffffffff80821115610ee357600080fd5b818601915086601f830112610ef757600080fd5b813581811115610f0657600080fd5b876020828501011115610f1857600080fd5b6020830194508093505050509250925092565b634e487b7160e01b600052603260045260246000fd5b634e487b7160e01b600052601160045260246000fd5b600063ffffffff808316818103610f7057610f70610f41565b6001019392505050565b80518015158114610f8a57600080fd5b919050565b6000806000806000806000806000806101408b8d031215610faf57600080fd5b610fb88b610f7a565b9950610fc660208c01610f7a565b985060408b0151975060608b0151965060808b0151955060a08b0151945060c08b0151935060e08b015192506101008b015191506101208b015190509295989b9194979a5092959850565b600181811c9082168061102557607f821691505b60208210810361104557634e487b7160e01b600052602260045260246000fd5b50919050565b60006001820161105d5761105d610f41565b5060010190565b601f82111561045a57600081815260208120601f850160051c8101602086101561108b5750805b601f850160051c820191505b81811015610a3a57828155600101611097565b67ffffffffffffffff8311156110c2576110c2610de8565b6110d6836110d08354611011565b83611064565b6000601f84116001811461110a57600085156110f25750838201355b600019600387901b1c1916600186901b178355611164565b600083815260209020601f19861690835b8281101561113b578685013582556020948501946001909201910161111b565b50868210156111585760001960f88860031b161c19848701351681555b505060018560011b0183555b5050505050565b634e487b7160e01b600052601260045260246000fd5b6000826111905761119061116b565b500690565b808201808211156111a8576111a8610f41565b92915050565b6000826111bd576111bd61116b565b500490565b600082516111d4818460208701610d09565b9190910192915050565b818103818111156111a8576111a8610f41565b815167ffffffffffffffff81111561120b5761120b610de8565b61121f816112198454611011565b84611064565b602080601f831160018114611254576000841561123c5750858301515b600019600386901b1c1916600185901b178555610a3a565b600085815260208120601f198616915b8281101561128357888601518255948401946001909101908401611264565b50858210156112a15787850151600019600388901b60f8161c191681555b5050505050600190811b01905550565b8381526060602082015260006112ca6060830185610d2d565b905082604083015294935050505056fea26469706673582212201c71b88608900f9d69a08b5a4c87414707f913363e1d3b71c96af6c81e634e0d64736f6c63430008150033",
    "linkReferences": {}
  },
  "methodIdentifiers": {
    "changeDna(uint256,uint256)": "5faf2880",
    "changeName(uint256,string)": "c39cbef1",
    "createRandomZombie(string)": "7bff0a01",
    "feedOnKitty(uint256,uint256)": "17a7f4cc",
    "getZombiesByOwner(address)": "4412e104",
    "isOwner()": "8f32d59b",
    "levelUp(uint256)": "0ce90ec2",
    "owner()": "8da5cb5b",
    "ownerZombieCount(address)": "01afd7e1",
    "renounceOwnership()": "715018a6",
    "setKittyContractAddress(address)": "5f4623f1",
    "setLevelUpFee(uint256)": "ccf670f8",
    "transferOwnership(address)": "f2fde38b",
    "withdraw()": "3ccfd60b",
    "zombieToOwner(uint256)": "528b7b8f",
    "zombies(uint256)": "2052465e"
  },
  "id": 23
}