{
  "abi": [
    {
      "anonymous": false,
      "inputs": [
        {
          "indexed": false,
          "internalType": "uint256",
          "name": "zombieId",
          "type": "uint256"
        },
        {
          "indexed": false,
          "internalType": "string",
          "name": "name",
          "type": "string"
        },
        {
          "indexed": false,
          "internalType": "uint256",
          "name": "dna",
          "type": "uint256"
        }
      ],
      "name": "NewZombie",
      "type": "event"
    },
    {
      "anonymous": false,
      "inputs": [
        {
          "indexed": true,
          "internalType": "address",
          "name": "previousOwner",
          "type": "address"
        },
        {
          "indexed": true,
          "internalType": "address",
          "name": "newOwner",
          "type": "address"
        }
      ],
      "name": "OwnershipTransferred",
      "type": "event"
    },
    {
      "inputs": [
        {
          "internalType": "string",
          "name": "_name",
          "type": "string"
        }
      ],
      "name": "createRandomZombie",
      "outputs": [],
      "stateMutability": "nonpayable",
      "type": "function"
    },
    {
      "inputs": [
        {
          "internalType": "uint256",
          "name": "_zombieId",
          "type": "uint256"
        },
        {
          "internalType": "uint256",
          "name": "_kittyId",
          "type": "uint256"
        }
      ],
      "name": "feedOnKitty",
      "outputs": [],
      "stateMutability": "nonpayable",
      "type": "function"
    },
    {
      "inputs": [],
      "name": "isOwner",
      "outputs": [
        {
          "internalType": "bool",
          "name": "",
          "type": "bool"
        }
      ],
      "stateMutability": "view",
      "type": "function"
    },
    {
      "inputs": [],
      "name": "owner",
      "outputs": [
        {
          "internalType": "address",
          "name": "",
          "type": "address"
        }
      ],
      "stateMutability": "view",
      "type": "function"
    },
    {
      "inputs": [
        {
          "internalType": "address",
          "name": "",
          "type": "address"
        }
      ],
      "name": "ownerZombieCount",
      "outputs": [
        {
          "internalType": "uint256",
          "name": "",
          "type": "uint256"
        }
      ],
      "stateMutability": "view",
      "type": "function"
    },
    {
      "inputs": [],
      "name": "renounceOwnership",
      "outputs": [],
      "stateMutability": "nonpayable",
      "type": "function"
    },
    {
      "inputs": [
        {
          "internalType": "address",
          "name": "_address",
          "type": "address"
        }
      ],
      "name": "setKittyContractAddress",
      "outputs": [],
      "stateMutability": "nonpayable",
      "type": "function"
    },
    {
      "inputs": [
        {
          "internalType": "address",
          "name": "newOwner",
          "type": "address"
        }
      ],
      "name": "transferOwnership",
      "outputs": [],
      "stateMutability": "nonpayable",
      "type": "function"
    },
    {
      "inputs": [
        {
          "internalType": "uint256",
          "name": "",
          "type": "uint256"
        }
      ],
      "name": "zombieToOwner",
      "outputs": [
        {
          "internalType": "address",
          "name": "",
          "type": "address"
        }
      ],
      "stateMutability": "view",
      "type": "function"
    },
    {
      "inputs": [
        {
          "internalType": "uint256",
          "name": "",
          "type": "uint256"
        }
      ],
      "name": "zombies",
      "outputs": [
        {
          "internalType": "string",
          "name": "name",
          "type": "string"
        },
        {
          "internalType": "uint256",
          "name": "dna",
          "type": "uint256"
        },
        {
          "internalType": "uint32",
          "name": "level",
          "type": "uint32"
        },
        {
          "internalType": "uint32",
          "name": "readyTime",
          "type": "uint32"
        },
        {
          "internalType": "uint16",
          "name": "winCount",
          "type": "uint16"
        },
        {
          "internalType": "uint16",
          "name": "lossCount",
          "type": "uint16"
        }
      ],
      "stateMutability": "view",
      "type": "function"
    }
  ],
  "bytecode": {
    "object": "0x6080604052601060018190556200001890600a6200018a565b600255620151806003553480156200002f57600080fd5b50600080546001600160a01b0319163390811782556040519091907f8be0079c531659141344cd1fd0a4f28419497f9722a3daafe3b4186f6b6457e0908290a36200019f565b634e487b7160e01b600052601160045260246000fd5b600181815b80851115620000cc578160001904821115620000b057620000b062000075565b80851615620000be57918102915b93841c939080029062000090565b509250929050565b600082620000e55750600162000184565b81620000f45750600062000184565b81600181146200010d5760028114620001185762000138565b600191505062000184565b60ff8411156200012c576200012c62000075565b50506001821b62000184565b5060208310610133831016604e8410600b84101617156200015d575081810a62000184565b6200016983836200008b565b806000190482111562000180576200018062000075565b0290505b92915050565b6000620001988383620000d4565b9392505050565b610cfc80620001af6000396000f3fe608060405234801561001057600080fd5b506004361061009e5760003560e01c8063715018a611610066578063715018a6146101645780637bff0a011461016c5780638da5cb5b1461017f5780638f32d59b14610190578063f2fde38b146101ae57600080fd5b806301afd7e1146100a357806317a7f4cc146100d65780632052465e146100eb578063528b7b8f146101105780635f4623f114610151575b600080fd5b6100c36100b1366004610835565b60066020526000908152604090205481565b6040519081526020015b60405180910390f35b6100e96100e436600461085e565b6101c1565b005b6100fe6100f9366004610880565b61026c565b6040516100cd969594939291906108e9565b61013961011e366004610880565b6005602052600090815260409020546001600160a01b031681565b6040516001600160a01b0390911681526020016100cd565b6100e961015f366004610835565b610356565b6100e961038f565b6100e961017a36600461094a565b6103f0565b6000546001600160a01b0316610139565b6000546001600160a01b0316331460405190151581526020016100cd565b6100e96101bc366004610835565b61045a565b60075460405163e98b7f4d60e01b8152600481018390526000916001600160a01b03169063e98b7f4d9060240161014060405180830381865afa15801561020c573d6000803e3d6000fd5b505050506040513d601f19601f820116820180604052508101906102309190610a10565b6040805180820190915260058152646b6974747960d81b6020820152909a5061026799508c98508a9750955061047d945050505050565b505050565b6004818154811061027c57600080fd5b906000526020600020906003020160009150905080600001805461029f90610a92565b80601f01602080910402602001604051908101604052809291908181526020018280546102cb90610a92565b80156103185780601f106102ed57610100808354040283529160200191610318565b820191906000526020600020905b8154815290600101906020018083116102fb57829003601f168201915b505050600184015460029094015492939263ffffffff8082169350640100000000820416915061ffff600160401b8204811691600160501b90041686565b6000546001600160a01b0316331461036d57600080fd5b600780546001600160a01b0319166001600160a01b0392909216919091179055565b6000546001600160a01b031633146103a657600080fd5b600080546040516001600160a01b03909116907f8be0079c531659141344cd1fd0a4f28419497f9722a3daafe3b4186f6b6457e0908390a3600080546001600160a01b0319169055565b336000908152600660205260409020541561043f5760405162461bcd60e51b815260206004820152600b60248201526a073686f756c6420626520360ac1b604482015260640160405180910390fd5b600061044a826105d2565b90506104568282610616565b5050565b6000546001600160a01b0316331461047157600080fd5b61047a81610795565b50565b60008381526005602052604090205483906001600160a01b031633146104a257600080fd5b6000600485815481106104b7576104b7610acc565b906000526020600020906003020190506104e781600201544263ffffffff64010000000090920491909116111590565b6104f057600080fd5b6002546104fd9085610af8565b9350600060028583600101546105139190610b22565b61051d9190610b3b565b604051646b6974747960d81b6020820152909150602501604051602081830303815290604052805190602001208460405160200161055b9190610b4f565b604051602081830303815290604052805190602001200361059957610581606482610af8565b61058b9082610b6b565b610596906063610b22565b90505b6105c1604051806040016040528060068152602001654e6f4e616d6560d01b81525082610616565b6105ca82610803565b505050505050565b600080826040516020016105e69190610b4f565b6040516020818303038152906040528051906020012060001c90506002548161060f9190610af8565b9392505050565b6000600480549050905060046040518060c00160405280858152602001848152602001600163ffffffff168152602001600354426106549190610b22565b63ffffffff168152600060208083018290526040909201819052835460018101855593815220815191926003020190819061068f9082610bc4565b506020828101516001830155604080840151600290930180546060860151608087015160a09097015161ffff908116600160501b0261ffff60501b1991909816600160401b02166bffffffff00000000000000001963ffffffff9283166401000000000267ffffffffffffffff1990941692909716919091179190911794909416939093179390931790915560008381526005825282812080546001600160a01b031916339081179091558152600690915290812080549161075083610c84565b91905055507f88f026aacbbecc90c18411df4b1185fd8d9be2470f1962f192bf84a27d0704b781848460405161078893929190610c9d565b60405180910390a1505050565b6001600160a01b0381166107a857600080fd5b600080546040516001600160a01b03808516939216917f8be0079c531659141344cd1fd0a4f28419497f9722a3daafe3b4186f6b6457e091a3600080546001600160a01b0319166001600160a01b0392909216919091179055565b6003546108109042610b22565b8160020160046101000a81548163ffffffff021916908363ffffffff16021790555050565b60006020828403121561084757600080fd5b81356001600160a01b038116811461060f57600080fd5b6000806040838503121561087157600080fd5b50508035926020909101359150565b60006020828403121561089257600080fd5b5035919050565b60005b838110156108b457818101518382015260200161089c565b50506000910152565b600081518084526108d5816020860160208601610899565b601f01601f19169290920160200192915050565b60c0815260006108fc60c08301896108bd565b60208301979097525063ffffffff948516604082015292909316606083015261ffff908116608083015290911660a090910152919050565b634e487b7160e01b600052604160045260246000fd5b60006020828403121561095c57600080fd5b813567ffffffffffffffff8082111561097457600080fd5b818401915084601f83011261098857600080fd5b81358181111561099a5761099a610934565b604051601f8201601f19908116603f011681019083821181831017156109c2576109c2610934565b816040528281528760208487010111156109db57600080fd5b826020860160208301376000928101602001929092525095945050505050565b80518015158114610a0b57600080fd5b919050565b6000806000806000806000806000806101408b8d031215610a3057600080fd5b610a398b6109fb565b9950610a4760208c016109fb565b985060408b0151975060608b0151965060808b0151955060a08b0151945060c08b0151935060e08b015192506101008b015191506101208b015190509295989b9194979a5092959850565b600181811c90821680610aa657607f821691505b602082108103610ac657634e487b7160e01b600052602260045260246000fd5b50919050565b634e487b7160e01b600052603260045260246000fd5b634e487b7160e01b600052601260045260246000fd5b600082610b0757610b07610ae2565b500690565b634e487b7160e01b600052601160045260246000fd5b80820180821115610b3557610b35610b0c565b92915050565b600082610b4a57610b4a610ae2565b500490565b60008251610b61818460208701610899565b9190910192915050565b81810381811115610b3557610b35610b0c565b601f82111561026757600081815260208120601f850160051c81016020861015610ba55750805b601f850160051c820191505b818110156105ca57828155600101610bb1565b815167ffffffffffffffff811115610bde57610bde610934565b610bf281610bec8454610a92565b84610b7e565b602080601f831160018114610c275760008415610c0f5750858301515b600019600386901b1c1916600185901b1785556105ca565b600085815260208120601f198616915b82811015610c5657888601518255948401946001909101908401610c37565b5085821015610c745787850151600019600388901b60f8161c191681555b5050505050600190811b01905550565b600060018201610c9657610c96610b0c565b5060010190565b838152606060208201526000610cb660608301856108bd565b905082604083015294935050505056fea2646970667358221220d12181aba110c5de76ceaf180688a9eb0b0de6f285062adcb2acb136c34f49a964736f6c63430008150033",
    "linkReferences": {}
  },
  "methodIdentifiers": {
    "createRandomZombie(string)": "7bff0a01",
    "feedOnKitty(uint256,uint256)": "17a7f4cc",
    "isOwner()": "8f32d59b",
    "owner()": "8da5cb5b",
    "ownerZombieCount(address)": "01afd7e1",
    "renounceOwnership()": "715018a6",
    "setKittyContractAddress(address)": "5f4623f1",
    "transferOwnership(address)": "f2fde38b",
    "zombieToOwner(uint256)": "528b7b8f",
    "zombies(uint256)": "2052465e"
  },
  "id": 22
}