{
  "abi": [
    {
      "anonymous": false,
      "inputs": [
        {
          "indexed": false,
          "internalType": "uint256",
          "name": "zombieId",
          "type": "uint256"
        },
        {
          "indexed": false,
          "internalType": "string",
          "name": "name",
          "type": "string"
        },
        {
          "indexed": false,
          "internalType": "uint256",
          "name": "dna",
          "type": "uint256"
        }
      ],
      "name": "NewZombie",
      "type": "event"
    },
    {
      "anonymous": false,
      "inputs": [
        {
          "indexed": true,
          "internalType": "address",
          "name": "previousOwner",
          "type": "address"
        },
        {
          "indexed": true,
          "internalType": "address",
          "name": "newOwner",
          "type": "address"
        }
      ],
      "name": "OwnershipTransferred",
      "type": "event"
    },
    {
      "inputs": [
        {
          "internalType": "uint256",
          "name": "_zombieId",
          "type": "uint256"
        },
        {
          "internalType": "uint256",
          "name": "_targetId",
          "type": "uint256"
        }
      ],
      "name": "attack",
      "outputs": [],
      "stateMutability": "nonpayable",
      "type": "function"
    },
    {
      "inputs": [
        {
          "internalType": "uint256",
          "name": "_zombieId",
          "type": "uint256"
        },
        {
          "internalType": "uint256",
          "name": "_newDna",
          "type": "uint256"
        }
      ],
      "name": "changeDna",
      "outputs": [],
      "stateMutability": "nonpayable",
      "type": "function"
    },
    {
      "inputs": [
        {
          "internalType": "uint256",
          "name": "_zombieId",
          "type": "uint256"
        },
        {
          "internalType": "string",
          "name": "_newName",
          "type": "string"
        }
      ],
      "name": "changeName",
      "outputs": [],
      "stateMutability": "nonpayable",
      "type": "function"
    },
    {
      "inputs": [
        {
          "internalType": "string",
          "name": "_name",
          "type": "string"
        }
      ],
      "name": "createRandomZombie",
      "outputs": [],
      "stateMutability": "nonpayable",
      "type": "function"
    },
    {
      "inputs": [
        {
          "internalType": "uint256",
          "name": "_zombieId",
          "type": "uint256"
        },
        {
          "internalType": "uint256",
          "name": "_kittyId",
          "type": "uint256"
        }
      ],
      "name": "feedOnKitty",
      "outputs": [],
      "stateMutability": "nonpayable",
      "type": "function"
    },
    {
      "inputs": [
        {
          "internalType": "address",
          "name": "_owner",
          "type": "address"
        }
      ],
      "name": "getZombiesByOwner",
      "outputs": [
        {
          "internalType": "uint256[]",
          "name": "",
          "type": "uint256[]"
        }
      ],
      "stateMutability": "view",
      "type": "function"
    },
    {
      "inputs": [],
      "name": "isOwner",
      "outputs": [
        {
          "internalType": "bool",
          "name": "",
          "type": "bool"
        }
      ],
      "stateMutability": "view",
      "type": "function"
    },
    {
      "inputs": [
        {
          "internalType": "uint256",
          "name": "_zombieId",
          "type": "uint256"
        }
      ],
      "name": "levelUp",
      "outputs": [],
      "stateMutability": "payable",
      "type": "function"
    },
    {
      "inputs": [],
      "name": "owner",
      "outputs": [
        {
          "internalType": "address",
          "name": "",
          "type": "address"
        }
      ],
      "stateMutability": "view",
      "type": "function"
    },
    {
      "inputs": [
        {
          "internalType": "address",
          "name": "",
          "type": "address"
        }
      ],
      "name": "ownerZombieCount",
      "outputs": [
        {
          "internalType": "uint256",
          "name": "",
          "type": "uint256"
        }
      ],
      "stateMutability": "view",
      "type": "function"
    },
    {
      "inputs": [],
      "name": "renounceOwnership",
      "outputs": [],
      "stateMutability": "nonpayable",
      "type": "function"
    },
    {
      "inputs": [
        {
          "internalType": "address",
          "name": "_address",
          "type": "address"
        }
      ],
      "name": "setKittyContractAddress",
      "outputs": [],
      "stateMutability": "nonpayable",
      "type": "function"
    },
    {
      "inputs": [
        {
          "internalType": "uint256",
          "name": "_fee",
          "type": "uint256"
        }
      ],
      "name": "setLevelUpFee",
      "outputs": [],
      "stateMutability": "nonpayable",
      "type": "function"
    },
    {
      "inputs": [
        {
          "internalType": "address",
          "name": "newOwner",
          "type": "address"
        }
      ],
      "name": "transferOwnership",
      "outputs": [],
      "stateMutability": "nonpayable",
      "type": "function"
    },
    {
      "inputs": [],
      "name": "withdraw",
      "outputs": [],
      "stateMutability": "nonpayable",
      "type": "function"
    },
    {
      "inputs": [
        {
          "internalType": "uint256",
          "name": "",
          "type": "uint256"
        }
      ],
      "name": "zombieToOwner",
      "outputs": [
        {
          "internalType": "address",
          "name": "",
          "type": "address"
        }
      ],
      "stateMutability": "view",
      "type": "function"
    },
    {
      "inputs": [
        {
          "internalType": "uint256",
          "name": "",
          "type": "uint256"
        }
      ],
      "name": "zombies",
      "outputs": [
        {
          "internalType": "string",
          "name": "name",
          "type": "string"
        },
        {
          "internalType": "uint256",
          "name": "dna",
          "type": "uint256"
        },
        {
          "internalType": "uint32",
          "name": "level",
          "type": "uint32"
        },
        {
          "internalType": "uint32",
          "name": "readyTime",
          "type": "uint32"
        },
        {
          "internalType": "uint16",
          "name": "winCount",
          "type": "uint16"
        },
        {
          "internalType": "uint16",
          "name": "lossCount",
          "type": "uint16"
        }
      ],
      "stateMutability": "view",
      "type": "function"
    }
  ],
  "bytecode": {
    "object": "0x6080604052601060018190556200001890600a6200019f565b6002556201518060035566038d7ea4c6800060085560006009556046600a553480156200004457600080fd5b50600080546001600160a01b0319163390811782556040519091907f8be0079c531659141344cd1fd0a4f28419497f9722a3daafe3b4186f6b6457e0908290a3620001b4565b634e487b7160e01b600052601160045260246000fd5b600181815b80851115620000e1578160001904821115620000c557620000c56200008a565b80851615620000d357918102915b93841c9390800290620000a5565b509250929050565b600082620000fa5750600162000199565b81620001095750600062000199565b81600181146200012257600281146200012d576200014d565b600191505062000199565b60ff8411156200014157620001416200008a565b50506001821b62000199565b5060208310610133831016604e8410600b841016171562000172575081810a62000199565b6200017e8383620000a0565b80600019048211156200019557620001956200008a565b0290505b92915050565b6000620001ad8383620000e9565b9392505050565b6115a180620001c46000396000f3fe6080604052600436106100fe5760003560e01c80635faf2880116100955780638f32d59b116100645780638f32d59b146102cd578063c39cbef1146102f8578063ccf670f814610318578063e1fa763814610338578063f2fde38b1461035857600080fd5b80635faf28801461025a578063715018a61461027a5780637bff0a011461028f5780638da5cb5b146102af57600080fd5b80633ccfd60b116100d15780633ccfd60b146101aa5780634412e104146101bf578063528b7b8f146101ec5780635f4623f11461023a57600080fd5b806301afd7e1146101035780630ce90ec21461014357806317a7f4cc146101585780632052465e14610178575b600080fd5b34801561010f57600080fd5b5061013061011e366004610f25565b60066020526000908152604090205481565b6040519081526020015b60405180910390f35b610156610151366004610f4e565b610378565b005b34801561016457600080fd5b50610156610173366004610f67565b6103df565b34801561018457600080fd5b50610198610193366004610f4e565b61048a565b60405161013a96959493929190610fd9565b3480156101b657600080fd5b50610156610574565b3480156101cb57600080fd5b506101df6101da366004610f25565b6105d4565b60405161013a9190611024565b3480156101f857600080fd5b50610222610207366004610f4e565b6005602052600090815260409020546001600160a01b031681565b6040516001600160a01b03909116815260200161013a565b34801561024657600080fd5b50610156610255366004610f25565b6106ab565b34801561026657600080fd5b50610156610275366004610f67565b6106e4565b34801561028657600080fd5b50610156610775565b34801561029b57600080fd5b506101566102aa36600461107e565b6107d6565b3480156102bb57600080fd5b506000546001600160a01b0316610222565b3480156102d957600080fd5b506000546001600160a01b03163314604051901515815260200161013a565b34801561030457600080fd5b5061015661031336600461112f565b61083c565b34801561032457600080fd5b50610156610333366004610f4e565b6108d9565b34801561034457600080fd5b50610156610353366004610f67565b6108f5565b34801561036457600080fd5b50610156610373366004610f25565b610adf565b600854341461038657600080fd5b60048181548110610399576103996111ab565b600091825260208220600260039092020101805463ffffffff16916103bd836111d7565b91906101000a81548163ffffffff021916908363ffffffff1602179055505050565b60075460405163e98b7f4d60e01b8152600481018390526000916001600160a01b03169063e98b7f4d9060240161014060405180830381865afa15801561042a573d6000803e3d6000fd5b505050506040513d601f19601f8201168201806040525081019061044e919061120f565b6040805180820190915260058152646b6974747960d81b6020820152909a5061048599508c98508a97509550610b02945050505050565b505050565b6004818154811061049a57600080fd5b90600052602060002090600302016000915090508060000180546104bd90611291565b80601f01602080910402602001604051908101604052809291908181526020018280546104e990611291565b80156105365780601f1061050b57610100808354040283529160200191610536565b820191906000526020600020905b81548152906001019060200180831161051957829003601f168201915b505050600184015460029094015492939263ffffffff8082169350640100000000820416915061ffff600160401b8204811691600160501b90041686565b6000546001600160a01b0316331461058b57600080fd5b600080546001600160a01b03166040519091506001600160a01b038216904780156108fc02916000818181858888f193505050501580156105d0573d6000803e3d6000fd5b5050565b6001600160a01b0381166000908152600660205260408120546060919067ffffffffffffffff81111561060957610609611068565b604051908082528060200260200182016040528015610632578160200160208202803683370190505b5090506000805b6004548110156106a2576000818152600560205260409020546001600160a01b038087169116036106905780838381518110610677576106776111ab565b60209081029190910101528161068c816112cb565b9250505b8061069a816112cb565b915050610639565b50909392505050565b6000546001600160a01b031633146106c257600080fd5b600780546001600160a01b0319166001600160a01b0392909216919091179055565b60148281600482815481106106fb576106fb6111ab565b600091825260209091206002600390920201015463ffffffff16101561072057600080fd5b60008481526005602052604090205484906001600160a01b0316331461074557600080fd5b8360048681548110610759576107596111ab565b9060005260206000209060030201600101819055505050505050565b6000546001600160a01b0316331461078c57600080fd5b600080546040516001600160a01b03909116907f8be0079c531659141344cd1fd0a4f28419497f9722a3daafe3b4186f6b6457e0908390a3600080546001600160a01b0319169055565b33600090815260066020526040902054156108255760405162461bcd60e51b815260206004820152600b60248201526a073686f756c6420626520360ac1b604482015260640160405180910390fd5b600061083082610c4f565b90506105d08282610c93565b6002838160048281548110610853576108536111ab565b600091825260209091206002600390920201015463ffffffff16101561087857600080fd5b60008581526005602052604090205485906001600160a01b0316331461089d57600080fd5b8484600488815481106108b2576108b26111ab565b906000526020600020906003020160000191826108d092919061132a565b50505050505050565b6000546001600160a01b031633146108f057600080fd5b600855565b60008281526005602052604090205482906001600160a01b0316331461091a57600080fd5b60006004848154811061092f5761092f6111ab565b90600052602060002090600302019050600060048481548110610954576109546111ab565b9060005260206000209060030201905060006109706064610e12565b9050600a548111610a5957600283018054600160401b900461ffff16906008610998836113eb565b825461ffff9182166101009390930a92830291909202199091161790555060028301805463ffffffff169060006109ce836111d7565b825463ffffffff9182166101009390930a92830291909202199091161790555060028201805461ffff600160501b9091041690600a610a0c836113eb565b91906101000a81548161ffff021916908361ffff16021790555050610a54868360010154604051806040016040528060068152602001657a6f6d62696560d01b815250610b02565b610ad7565b600283018054600160501b900461ffff1690600a610a76836113eb565b91906101000a81548161ffff021916908361ffff1602179055505081600201600881819054906101000a900461ffff1680929190610ab3906113eb565b91906101000a81548161ffff021916908361ffff16021790555050610ad783610e85565b505050505050565b6000546001600160a01b03163314610af657600080fd5b610aff81610eb7565b50565b60008381526005602052604090205483906001600160a01b03163314610b2757600080fd5b600060048581548110610b3c57610b3c6111ab565b90600052602060002090600302019050610b6c81600201544263ffffffff64010000000090920491909116111590565b610b7557600080fd5b600254610b829085611418565b935060006002858360010154610b98919061142c565b610ba2919061143f565b604051646b6974747960d81b60208201529091506025016040516020818303038152906040528051906020012084604051602001610be09190611453565b6040516020818303038152906040528051906020012003610c1e57610c06606482611418565b610c10908261146f565b610c1b90606361142c565b90505b610c46604051806040016040528060068152602001654e6f4e616d6560d01b81525082610c93565b610ad782610e85565b60008082604051602001610c639190611453565b6040516020818303038152906040528051906020012060001c905060025481610c8c9190611418565b9392505050565b6000600480549050905060046040518060c00160405280858152602001848152602001600163ffffffff16815260200160035442610cd1919061142c565b63ffffffff1681526000602080830182905260409092018190528354600181018555938152208151919260030201908190610d0c9082611482565b506020828101516001830155604080840151600290930180546060860151608087015160a09097015161ffff908116600160501b0261ffff60501b1991909816600160401b02166bffffffff00000000000000001963ffffffff9283166401000000000267ffffffffffffffff1990941692909716919091179190911794909416939093179390931790915560008381526005825282812080546001600160a01b0319163390811790915581526006909152908120805491610dcd836112cb565b91905055507f88f026aacbbecc90c18411df4b1185fd8d9be2470f1962f192bf84a27d0704b7818484604051610e0593929190611542565b60405180910390a1505050565b6009805460009182610e23836112cb565b9091555050600954604080514260208201526bffffffffffffffffffffffff193360601b1691810191909152605481019190915282906074016040516020818303038152906040528051906020012060001c610e7f9190611418565b92915050565b600354610e92904261142c565b8160020160046101000a81548163ffffffff021916908363ffffffff16021790555050565b6001600160a01b038116610eca57600080fd5b600080546040516001600160a01b03808516939216917f8be0079c531659141344cd1fd0a4f28419497f9722a3daafe3b4186f6b6457e091a3600080546001600160a01b0319166001600160a01b0392909216919091179055565b600060208284031215610f3757600080fd5b81356001600160a01b0381168114610c8c57600080fd5b600060208284031215610f6057600080fd5b5035919050565b60008060408385031215610f7a57600080fd5b50508035926020909101359150565b60005b83811015610fa4578181015183820152602001610f8c565b50506000910152565b60008151808452610fc5816020860160208601610f89565b601f01601f19169290920160200192915050565b60c081526000610fec60c0830189610fad565b60208301979097525063ffffffff948516604082015292909316606083015261ffff908116608083015290911660a090910152919050565b6020808252825182820181905260009190848201906040850190845b8181101561105c57835183529284019291840191600101611040565b50909695505050505050565b634e487b7160e01b600052604160045260246000fd5b60006020828403121561109057600080fd5b813567ffffffffffffffff808211156110a857600080fd5b818401915084601f8301126110bc57600080fd5b8135818111156110ce576110ce611068565b604051601f8201601f19908116603f011681019083821181831017156110f6576110f6611068565b8160405282815287602084870101111561110f57600080fd5b826020860160208301376000928101602001929092525095945050505050565b60008060006040848603121561114457600080fd5b83359250602084013567ffffffffffffffff8082111561116357600080fd5b818601915086601f83011261117757600080fd5b81358181111561118657600080fd5b87602082850101111561119857600080fd5b6020830194508093505050509250925092565b634e487b7160e01b600052603260045260246000fd5b634e487b7160e01b600052601160045260246000fd5b600063ffffffff8083168181036111f0576111f06111c1565b6001019392505050565b8051801515811461120a57600080fd5b919050565b6000806000806000806000806000806101408b8d03121561122f57600080fd5b6112388b6111fa565b995061124660208c016111fa565b985060408b0151975060608b0151965060808b0151955060a08b0151945060c08b0151935060e08b015192506101008b015191506101208b015190509295989b9194979a5092959850565b600181811c908216806112a557607f821691505b6020821081036112c557634e487b7160e01b600052602260045260246000fd5b50919050565b6000600182016112dd576112dd6111c1565b5060010190565b601f82111561048557600081815260208120601f850160051c8101602086101561130b5750805b601f850160051c820191505b81811015610ad757828155600101611317565b67ffffffffffffffff83111561134257611342611068565b611356836113508354611291565b836112e4565b6000601f84116001811461138a57600085156113725750838201355b600019600387901b1c1916600186901b1783556113e4565b600083815260209020601f19861690835b828110156113bb578685013582556020948501946001909201910161139b565b50868210156113d85760001960f88860031b161c19848701351681555b505060018560011b0183555b5050505050565b600061ffff8083168181036111f0576111f06111c1565b634e487b7160e01b600052601260045260246000fd5b60008261142757611427611402565b500690565b80820180821115610e7f57610e7f6111c1565b60008261144e5761144e611402565b500490565b60008251611465818460208701610f89565b9190910192915050565b81810381811115610e7f57610e7f6111c1565b815167ffffffffffffffff81111561149c5761149c611068565b6114b0816114aa8454611291565b846112e4565b602080601f8311600181146114e557600084156114cd5750858301515b600019600386901b1c1916600185901b178555610ad7565b600085815260208120601f198616915b82811015611514578886015182559484019460019091019084016114f5565b50858210156115325787850151600019600388901b60f8161c191681555b5050505050600190811b01905550565b83815260606020820152600061155b6060830185610fad565b905082604083015294935050505056fea26469706673582212204d2764cba3a66fa8b8d5614f0c6e3e713f53bda7692dea6c1ccaf0514a48b83364736f6c63430008150033",
    "linkReferences": {}
  },
  "methodIdentifiers": {
    "attack(uint256,uint256)": "e1fa7638",
    "changeDna(uint256,uint256)": "5faf2880",
    "changeName(uint256,string)": "c39cbef1",
    "createRandomZombie(string)": "7bff0a01",
    "feedOnKitty(uint256,uint256)": "17a7f4cc",
    "getZombiesByOwner(address)": "4412e104",
    "isOwner()": "8f32d59b",
    "levelUp(uint256)": "0ce90ec2",
    "owner()": "8da5cb5b",
    "ownerZombieCount(address)": "01afd7e1",
    "renounceOwnership()": "715018a6",
    "setKittyContractAddress(address)": "5f4623f1",
    "setLevelUpFee(uint256)": "ccf670f8",
    "transferOwnership(address)": "f2fde38b",
    "withdraw()": "3ccfd60b",
    "zombieToOwner(uint256)": "528b7b8f",
    "zombies(uint256)": "2052465e"
  },
  "id": 21
}