{
  "abi": [
    {
      "anonymous": false,
      "inputs": [
        {
          "indexed": false,
          "internalType": "uint256",
          "name": "zombieId",
          "type": "uint256"
        },
        {
          "indexed": false,
          "internalType": "string",
          "name": "name",
          "type": "string"
        },
        {
          "indexed": false,
          "internalType": "uint256",
          "name": "dna",
          "type": "uint256"
        }
      ],
      "name": "NewZombie",
      "type": "event"
    },
    {
      "anonymous": false,
      "inputs": [
        {
          "indexed": true,
          "internalType": "address",
          "name": "previousOwner",
          "type": "address"
        },
        {
          "indexed": true,
          "internalType": "address",
          "name": "newOwner",
          "type": "address"
        }
      ],
      "name": "OwnershipTransferred",
      "type": "event"
    },
    {
      "inputs": [
        {
          "internalType": "string",
          "name": "_name",
          "type": "string"
        }
      ],
      "name": "createRandomZombie",
      "outputs": [],
      "stateMutability": "nonpayable",
      "type": "function"
    },
    {
      "inputs": [],
      "name": "isOwner",
      "outputs": [
        {
          "internalType": "bool",
          "name": "",
          "type": "bool"
        }
      ],
      "stateMutability": "view",
      "type": "function"
    },
    {
      "inputs": [],
      "name": "owner",
      "outputs": [
        {
          "internalType": "address",
          "name": "",
          "type": "address"
        }
      ],
      "stateMutability": "view",
      "type": "function"
    },
    {
      "inputs": [
        {
          "internalType": "address",
          "name": "",
          "type": "address"
        }
      ],
      "name": "ownerZombieCount",
      "outputs": [
        {
          "internalType": "uint256",
          "name": "",
          "type": "uint256"
        }
      ],
      "stateMutability": "view",
      "type": "function"
    },
    {
      "inputs": [],
      "name": "renounceOwnership",
      "outputs": [],
      "stateMutability": "nonpayable",
      "type": "function"
    },
    {
      "inputs": [
        {
          "internalType": "address",
          "name": "newOwner",
          "type": "address"
        }
      ],
      "name": "transferOwnership",
      "outputs": [],
      "stateMutability": "nonpayable",
      "type": "function"
    },
    {
      "inputs": [
        {
          "internalType": "uint256",
          "name": "",
          "type": "uint256"
        }
      ],
      "name": "zombieToOwner",
      "outputs": [
        {
          "internalType": "address",
          "name": "",
          "type": "address"
        }
      ],
      "stateMutability": "view",
      "type": "function"
    },
    {
      "inputs": [
        {
          "internalType": "uint256",
          "name": "",
          "type": "uint256"
        }
      ],
      "name": "zombies",
      "outputs": [
        {
          "internalType": "string",
          "name": "name",
          "type": "string"
        },
        {
          "internalType": "uint256",
          "name": "dna",
          "type": "uint256"
        },
        {
          "internalType": "uint32",
          "name": "level",
          "type": "uint32"
        },
        {
          "internalType": "uint32",
          "name": "readyTime",
          "type": "uint32"
        },
        {
          "internalType": "uint16",
          "name": "winCount",
          "type": "uint16"
        },
        {
          "internalType": "uint16",
          "name": "lossCount",
          "type": "uint16"
        }
      ],
      "stateMutability": "view",
      "type": "function"
    }
  ],
  "bytecode": {
    "object": "0x6080604052601060018190556200001890600a6200018a565b600255620151806003553480156200002f57600080fd5b50600080546001600160a01b0319163390811782556040519091907f8be0079c531659141344cd1fd0a4f28419497f9722a3daafe3b4186f6b6457e0908290a36200019f565b634e487b7160e01b600052601160045260246000fd5b600181815b80851115620000cc578160001904821115620000b057620000b062000075565b80851615620000be57918102915b93841c939080029062000090565b509250929050565b600082620000e55750600162000184565b81620000f45750600062000184565b81600181146200010d5760028114620001185762000138565b600191505062000184565b60ff8411156200012c576200012c62000075565b50506001821b62000184565b5060208310610133831016604e8410600b84101617156200015d575081810a62000184565b6200016983836200008b565b806000190482111562000180576200018062000075565b0290505b92915050565b6000620001988383620000d4565b9392505050565b61096080620001af6000396000f3fe608060405234801561001057600080fd5b50600436106100885760003560e01c80637bff0a011161005b5780637bff0a01146101305780638da5cb5b146101435780638f32d59b14610154578063f2fde38b1461017257600080fd5b806301afd7e11461008d5780632052465e146100c0578063528b7b8f146100e5578063715018a614610126575b600080fd5b6100ad61009b36600461058e565b60066020526000908152604090205481565b6040519081526020015b60405180910390f35b6100d36100ce3660046105b7565b610185565b6040516100b796959493929190610620565b61010e6100f33660046105b7565b6005602052600090815260409020546001600160a01b031681565b6040516001600160a01b0390911681526020016100b7565b61012e61026f565b005b61012e61013e366004610681565b6102d0565b6000546001600160a01b031661010e565b6000546001600160a01b0316331460405190151581526020016100b7565b61012e61018036600461058e565b61033a565b6004818154811061019557600080fd5b90600052602060002090600302016000915090508060000180546101b890610732565b80601f01602080910402602001604051908101604052809291908181526020018280546101e490610732565b80156102315780601f1061020657610100808354040283529160200191610231565b820191906000526020600020905b81548152906001019060200180831161021457829003601f168201915b505050600184015460029094015492939263ffffffff8082169350640100000000820416915061ffff600160401b8204811691600160501b90041686565b6000546001600160a01b0316331461028657600080fd5b600080546040516001600160a01b03909116907f8be0079c531659141344cd1fd0a4f28419497f9722a3daafe3b4186f6b6457e0908390a3600080546001600160a01b0319169055565b336000908152600660205260409020541561031f5760405162461bcd60e51b815260206004820152600b60248201526a073686f756c6420626520360ac1b604482015260640160405180910390fd5b600061032a8261035d565b905061033682826103a1565b5050565b6000546001600160a01b0316331461035157600080fd5b61035a81610520565b50565b60008082604051602001610371919061076c565b6040516020818303038152906040528051906020012060001c90506002548161039a9190610788565b9392505050565b6000600480549050905060046040518060c00160405280858152602001848152602001600163ffffffff168152602001600354426103df91906107c0565b63ffffffff168152600060208083018290526040909201819052835460018101855593815220815191926003020190819061041a9082610828565b506020828101516001830155604080840151600290930180546060860151608087015160a09097015161ffff908116600160501b0261ffff60501b1991909816600160401b02166bffffffff00000000000000001963ffffffff9283166401000000000267ffffffffffffffff1990941692909716919091179190911794909416939093179390931790915560008381526005825282812080546001600160a01b03191633908117909155815260069091529081208054916104db836108e8565b91905055507f88f026aacbbecc90c18411df4b1185fd8d9be2470f1962f192bf84a27d0704b781848460405161051393929190610901565b60405180910390a1505050565b6001600160a01b03811661053357600080fd5b600080546040516001600160a01b03808516939216917f8be0079c531659141344cd1fd0a4f28419497f9722a3daafe3b4186f6b6457e091a3600080546001600160a01b0319166001600160a01b0392909216919091179055565b6000602082840312156105a057600080fd5b81356001600160a01b038116811461039a57600080fd5b6000602082840312156105c957600080fd5b5035919050565b60005b838110156105eb5781810151838201526020016105d3565b50506000910152565b6000815180845261060c8160208601602086016105d0565b601f01601f19169290920160200192915050565b60c08152600061063360c08301896105f4565b60208301979097525063ffffffff948516604082015292909316606083015261ffff908116608083015290911660a090910152919050565b634e487b7160e01b600052604160045260246000fd5b60006020828403121561069357600080fd5b813567ffffffffffffffff808211156106ab57600080fd5b818401915084601f8301126106bf57600080fd5b8135818111156106d1576106d161066b565b604051601f8201601f19908116603f011681019083821181831017156106f9576106f961066b565b8160405282815287602084870101111561071257600080fd5b826020860160208301376000928101602001929092525095945050505050565b600181811c9082168061074657607f821691505b60208210810361076657634e487b7160e01b600052602260045260246000fd5b50919050565b6000825161077e8184602087016105d0565b9190910192915050565b6000826107a557634e487b7160e01b600052601260045260246000fd5b500690565b634e487b7160e01b600052601160045260246000fd5b808201808211156107d3576107d36107aa565b92915050565b601f82111561082357600081815260208120601f850160051c810160208610156108005750805b601f850160051c820191505b8181101561081f5782815560010161080c565b5050505b505050565b815167ffffffffffffffff8111156108425761084261066b565b610856816108508454610732565b846107d9565b602080601f83116001811461088b57600084156108735750858301515b600019600386901b1c1916600185901b17855561081f565b600085815260208120601f198616915b828110156108ba5788860151825594840194600190910190840161089b565b50858210156108d85787850151600019600388901b60f8161c191681555b5050505050600190811b01905550565b6000600182016108fa576108fa6107aa565b5060010190565b83815260606020820152600061091a60608301856105f4565b905082604083015294935050505056fea2646970667358221220e4ebe8ba64e34e9b44ab6e871324354d43122c9feb578e7188e4dbbdacf504b764736f6c63430008150033",
    "linkReferences": {}
  },
  "methodIdentifiers": {
    "createRandomZombie(string)": "7bff0a01",
    "isOwner()": "8f32d59b",
    "owner()": "8da5cb5b",
    "ownerZombieCount(address)": "01afd7e1",
    "renounceOwnership()": "715018a6",
    "transferOwnership(address)": "f2fde38b",
    "zombieToOwner(uint256)": "528b7b8f",
    "zombies(uint256)": "2052465e"
  },
  "id": 18
}